S00B00006C61622E73726563EA
S11300000C9434000C9451000C9451000C94510045
S11300100C9451000C9451000C9451000C94510018
S11300200C9451000C9451000C9451000C94510008
S11300300C9451000C9451000C9451000C945100F8
S11300400C9451000C9451000C94B1020C94510086
S11300500C9451000C9451000C9451000C94D00257
S11300600C9451000C94510011241FBECFEFD8E022
S1130070DEBFCDBF11E0A0E0B1E0E8EEF5E002C0E4
S113008005900D92AC33B107D9F721E0ACE3B1E0B0
S113009001C01D92A534B207E1F70E94A0000C94A0
S11300A0F2020C94000087E880937A0080E4809345
S11300B07C000895813021F481E480937C000BC09E
S11300C0811104C080E480937C0005C0823019F45F
S11300D082E480937C00EAE7F0E08081806480839E
S11300E080917A0084FFFCCFEAE7F0E080818061B0
S11300F080838FE99FE00197F1F700C000008091B1
S113010078009091790008951092C00088E9809356
S1130110C10086E08093C20087E690E09093C5001A
S11301208093C4000895EBE7F0E08081808380B77A
S1130130886080BFEFE7F0E080818360808308956A
S1130140CF93DF93CDB7DEB7CE55D1090FB6F89470
S1130150DEBF0FBECDBF789482E08AB98FEF84B939
S11301600E9453000E9493000E94840088E2E1E010
S1130170F1E0DE01119601900D928A95E1F780E09D
S113018090E011C02091C00025FFFCCFFC01EE0FD0
S1130190FF1F21E030E02C0F3D1FE20FF31F2081F1
S11301A02093C60001968431910564F380E00E9497
S11301B05A00FC0190934401809343019C01ADECEF
S11301C0BCEC0E94E3026C01D694C794D694C79405
S11301D0D694C794C601880F991FCC0CDD1CCC0C97
S11301E0DD1CCC0CDD1CC80ED91EBF016C197D09A9
S11301F06B010E94E302AC015695479556954795CD
S1130200569547959A010E94E3028C01169507952D
S11302101695079516950795C801880F991F000F25
S1130220111F000F111F000F111F080F191FCA0102
S1130230801B910B8C019F01369527953695279548
S1130240ABE7B4E10E94E3027C01F694E7949701E2
S1130250ADECBCEC0E94E302AC0156954795569573
S1130260479556954795CA01880F991F440F551F06
S1130270440F551F440F551F480F591F241B350B9E
S1130280A9019F013695279536952795369527958B
S1130290A5ECB0E20E94E302929582958F708927C3
S11302A09F70892710E31C0D005D0F2EF0E3FF2ED5
S11302B0F02DF40E0F2EF0E3EF2EF02DE80E81E07A
S11302C00E945A006C0190934201809341019C0169
S11302D0ADECBCEC0E94E3025C01B694A794B69426
S11302E0A794B694A794C501880F991FAA0CBB1CA8
S11302F0AA0CBB1CAA0CBB1CA80EB91EB6016A1919
S11303007B095B010E94E302AC0156954795569523
S11303104795569547959A010E94E302FC01F6958C
S1130320E795F695E795F695E795CF01880F991F20
S1130330EE0FFF1FEE0FFF1FEE0FFF1FE80FF91F59
S1130340CA018E1B9F0BFC019601369527953695A5
S11303502795ABE7B4E10E94E3024C01969487949D
S11303609401ADECBCEC0E94E302AC0156954795B8
S11303705695479556954795CA01880F991F440F7E
S1130380551F440F551F440F551F480F591F241B59
S1130390350BA901960136952795369527953695FF
S11303A02795A5ECB0E20E94E302929582958F70A6
S11303B089279F70892730E33A0D20E32E0F405D93
S11303C0805D60914301709144016C197D097093C3
S11303D03D0160933C01161617061CF490E295B992
S11303E001C015B892E1E9E2F1E0DE01A35BBF4F81
S11303F001900D929A95E1F792E1E9E2F1E0DE01D4
S1130400DB9601900D929A95E1F792E1E9E2F1E031
S1130410DE01999601900D929A95E1F79091C000B2
S113042095FFFCCFE0913E01F0E0EE0FFF1F61E08D
S113043070E06C0F7D1FE60FF71F90A59093C60028
S11304409091C00095FFFCCFE0913F01F0E0EE0FEA
S1130450FF1F6DE470E06C0F7D1FE60FF71F9081A6
S11304609093C6009091C00095FFFCCFE0914001AD
S1130470F0E0EE0FFF1F61E070E06C0F7D1FE60FF0
S1130480F71F92AD9093C6009091C00095FFFCCFEA
S113049099E09093C6009091C00095FFFCCFE09244
S11304A0C6009091C00095FFFCCFF092C6009091D9
S11304B0C00095FFFCCF0093C6009091C00095FF4B
S11304C0FCCF1093C6009091C00095FFFCCF99E03B
S11304D09093C6009091C00095FFFCCF8093C60016
S11304E09091C00095FFFCCF4093C6009091C0004E
S11304F095FFFCCF2093C6009091C00095FFFCCFE0
S11305003093C6008091C00085FFFCCF8AE08093C1
S1130510C6008091C00085FFFCCF8DE08093C600AB
S1130520809140018F5F80934001893081F48091F4
S11305303F018F5F80933F0110924001893039F46D
S113054080913E018F5F80933E0110923F017FEFC7
S113055089E698E1715080409040E1F700C00000C6
S113056025CE1F920F920FB60F9211248F939F9353
S11305709091C600909300018091C00085FFFCCF4C
S1130580943429F49BB180E189278BB902C09093FC
S1130590C6009F918F910F900FBE0F901F901895DA
S11305A01F920F920FB60F9211248F9300B605FC81
S11305B003C088E08BB901C01BB88F910F900FBEA8
S11305C00F901F901895A29FB001B39FC001A39FE5
S11305D0700D811D1124911DB29F700D811D112478
S10B05E0911D0895F894FFCF6A
S11305E8204400410054004F000900530045004EC8
S11305F80041004C0031000900530045004E004101
S1130608004C0032000A000D003000310032003383
S10F0618003400350036003800390000C2
S9030000FC
