:100000000C9434000C943E000C943E000C943E0082
:100010000C943E000C943E000C943E000C943E0068
:100020000C943E000C943E000C943E000C943E0058
:100030000C943E000C943E000C943E000C943E0048
:100040000C943E000C943E000C943E000C943E0038
:100050000C943E000C943E000C943E000C943E0028
:100060000C943E000C943E0011241FBECFEFD8E04C
:10007000DEBFCDBF0E9440000C9479000C940000BC
:10008000F894E2ECF0E080818F7B808380818F7731
:10009000808380818F7E808380818F7D808380813B
:1000A000877F808380818260808380818460808379
:1000B000E1ECF0E080818B7F8083A0ECB0E08C915C
:1000C00082608C938FEC90E09093C5008093C40085
:1000D00080818861808378948091C0008823E4F7D0
:1000E0009091C6008091C00085FFFCCF9093C60020
:0600F000F3CFF894FFCFEE
:00000001FF
