S00B00006C61622E73726563EA
S11300000C9434000C9449000C9449000C9449005D
S11300100C9449000C9449000C9449000C94490038
S11300200C9449000C9449000C9449000C94490028
S11300300C9449000C9449000C9449000C94490018
S11300400C9449000C9449000C947B000C944900D6
S11300500C9449000C9449000C9449000C944900F8
S11300600C9449000C94490011241FBECFEFD8E032
S1130070DEBFCDBF11E0A0E0B1E0E0E8F1E002C0F6
S113008005900D92A031B107D9F70E944B000C9452
S1130090BE000C940000F894E2ECF0E080818F7BC9
S11300A0808380818F77808380818F7E808380812D
S11300B08F7D80838081877F80838081826080833D
S11300C0808184608083E1ECF0E080818B7F808399
S11300D0A0ECB0E08C9182608C938FEC90E09093D4
S11300E0C5008093C400808188618083808180689A
S11300F080837894FFCF1F920F920FB60F92112432
S11301002F933F938F939F93EF93FF939091C60008
S1130110909300018091C00085FFFCCF9434F9F4E2
S113012095B180E1892785B920E030E00CC0809149
S1130130C00085FFFCCFF901EF5FFE4F8081809303
S1130140C6002F5F3F4F2E3031058CF32FEF83ED28
S113015090E3215080409040E1F700C0000080917E
S113016000018093C600FF91EF919F918F913F9181
S11301702F910F900FBE0F901F901895F894FFCFFA
S1130180200D4C4544204F4E2F4F46460D00000095
S9030000FC
