S00B00006C61622E73726563EA
S11300000C9434000C9449000C9449000C9449005D
S11300100C9449000C9449000C9449000C94490038
S11300200C9449000C9449000C9449000C94490028
S11300300C9449000C9449000C9449000C94490018
S11300400C9449000C9449000C9449000C94490008
S11300500C9449000C9449000C9449000C944900F8
S11300600C9449000C94490011241FBECFEFD8E032
S1130070DEBFCDBF11E0A0E0B1E0ECE5F1E002C0ED
S113008005900D92AE30B107D9F70E944B000C9445
S1130090AC000C940000CF93DF93CDB7DEB72C9760
S11300A00FB6F894DEBF0FBECDBF8CE0E0E0F1E008
S11300B0DE01119601900D928A95E1F7F894E2EC35
S11300C0F0E080818F7B808380818F778083808143
S11300D08F7E808380818F7D80838081877F8083F2
S11300E0808182608083808184608083E1ECF0E0A1
S11300F080818B7F8083A0ECB0E08C9182608C93B4
S11301008FEC90E09093C5008093C4008081886058
S11301108083808180618083789420E030E00FC008
S11301208091C00085FFFCCFE1E0F0E0EC0FFD1F03
S1130130E20FF31F80818093C6002F5F3F4F2C3066
S1130140310574F32FEF83ED90E32150804090400C
S10F0150E1F700C00000E1CFF894FFCFFD
S111015C48656C6C6F20576F726C640D000068
S9030000FC
