:100000000C9434000C9449000C9449000C94490061
:100010000C9449000C9449000C9449000C9449003C
:100020000C9449000C9449000C9449000C9449002C
:100030000C9449000C9449000C9449000C9449001C
:100040000C9449000C9449000C94BD000C94490098
:100050000C9449000C9449000C9449000C944900FC
:100060000C9449000C94490011241FBECFEFD8E036
:10007000DEBFCDBF11E0A0E0B1E0E6ECF1E002C0F0
:1000800005900D92A232B107D9F70E9498000C9406
:10009000E1000C940000E2ECF0E080818F7B808333
:1000A00080818F77808380818F7E808380818F7D28
:1000B00080838081877F808380818260808380814C
:1000C00084608083E1ECF0E080818B7F8083A0EC12
:1000D000B0E08C9182608C938FEC90E09093C5009F
:1000E0008093C40080818861808380818068808360
:1000F00078940895DC01FC0101900020E9F7319724
:10010000BF01681B790B20E030E00CC09091C0006B
:1001100095FFFCCFFD01E20FF31F90819093C60085
:100120002F5F3F4FAB015527241735077CF3089508
:10013000F8940E944B0081E091E00E947A00FFCF8A
:100140009091C600909300018091C00085FFFCCF84
:10015000943481F495B180E1892785B92C9B05C041
:1001600089E191E00E947A0008958FE091E00E9479
:100170007A0008959093C60008951F920F920FB6CB
:100180000F9211242F933F934F935F936F937F931D
:100190008F939F93AF93BF93EF93FF930E94A00021
:1001A000FF91EF91BF91AF919F918F917F916F914F
:1001B0005F914F913F912F910F900FBE0F901F9025
:0601C0001895F894FFCF32
:1001C600200D4269656E76656E69646F0D0D000DD2
:1001D6004C4544204F46460D000D4C4544204F4E9D
:0201E6000D000A
:00000001FF
